:02000004F90001
:1000000097110000938181CA23A00182732540F1DA
:1000100015C503A5018275DD0F0020020F10000039
:1000200083A7C181014581450146828723AEA18016
:100030000F001001054523A0A182828013818192C7
:1000400017050000130585449705000093850544B6
:100050001386C18163FAC5008322050023A05500E1
:1000600011059105E3EAC5FE1385C181938581825F
:100070006377B500232005001105E36DB5FE452625
:06008000412E01A0828068
:10008600484141811375F50F8280411106C622C48D
:1000960026C22A84AE842285E53775DD04C0B240C7
:1000A6002244924441018280DC451CC59C41FD17D7
:1000B600D8412207D98F98454207D98F5CC58280DF
:1000C600B7470F0093870724B3D5F502B167E11749
:1000D6003E961C423385A5023E951C42B307F54069
:1000E600E3DD07FE8280411106C6AA85370501E8D1
:1000F600693FB24041018280411106C622C42A846A
:100106000345040001C50504F93FDDBFB2402244A2
:1001160041018280411106C6C537B2404101828045
:10012600011106CEA1473EC002C202C49307800D4C
:100136003EC68A85370501E8853FF2400561828023
:100146004841420541818280484141818280411176
:1001560006C622C426C22A84AE842285D53775DD1A
:1001660093E4041004C0B2402244924441018280C8
:10017600411106C622C42A842285D93775DD930724
:1001860000201CC02285C93775DD08401375F50FA0
:10019600B240224441018280411106C622C426C2D1
:1001A6002A84AE842285693F75DD85679387078833
:1001B600DD8C04C0B2402244924441018280411148
:1001C60006C622C426C22A84AE842285953F75DDE2
:1001D600856793870780DD8C04C0B2402244924431
:1001E600410182809C41D8410607D98F9845120764
:1001F600D98F1CC5DC451CD19C495CD1DC491CD57A
:100206009C4D5CD58280411106C622C42A843706DD
:10021600B0F8B7C5EB0B9385052005455535228506
:10022600053793070010E31CF5FEB2402244410156
:100236008280411106C68D37B2404101828041114C
:1002460006C6B53FB24041018280797106D622D4F6
:100256002A8402C202C402C689473EC815473ACA62
:100266003ECC9D473ECE4C00B53F2285693FB250FD
:10027600225445618280411106C622C426C22A84C0
:10028600AE84E137A68522855D3FB2402244924482
:1002960041018280411106C69305B00A4D3DB24028
:1002A60041018280411106C622C426C22A84AE8438
:1002B60049372285C537A685228551372285A1373C
:1002C6003706B0F8B7C5EB0B938505201305400636
:1002D600C53BB2402244924441018280011106CEC0
:1002E60022CC26CA4AC84EC62A89AE843284B6892A
:1002F600AD45B13D93D5040193F5F50F4A85813D92
:1003060093D5840093F5F50F4A85913593F5F40F4F
:100316004A85353D81454A851D3D814463F9340151
:100326004A85B9352300A40085040504C5BFF240FB
:100336006244D2444249B24905618280011106CE27
:1003460022CC26CA4AC84EC652C42A84AE843289F2
:10035600B6893A8AF93DD2864E86CA852285BD3F40
:10036600A6852285E93DF2406244D2444249B2491B
:10037600224A05618280011106CEA1473EC002C213
:1003860002C49307800D3EC68A85370501E8293BDE
:10039600F24005618280411106C6F13F814537056D
:1003A60003E8D13D8145370503E8ED3D370500F902
:1003B60013058548853337070400B706000137065D
:1003C60060008145370503E8953F370500F91305B9
:1003D6008549893337070C00B706040137066800DC
:1003E6008145370503E8993F370500F91305854A26
:1003F6001533370500010539014681450145B70723
:1004060000018297B24041018280411106C6093B34
:100416005937B24041018280411122C44AC01704B3
:10042600000013044406170900001309C90533091F
:10043600894006C626C2135929406309090081442A
:100446001C40850411048297E31C99FE17040000E2
:1004560013046403170900001309E90233098940EC
:10046600135929406309090081441C40850411047D
:100476008297E31C99FEB24022449244024941010C
:02048600828072
:100488004F70656E53424920636F70790D0A000002
:10049800552D426F6F7420636F70790D0A0000004C
:1004A8005061796C6F616420626F6F740D0A00008F
:0A04B800000000000000000000003A
:04000005F9000000FE
:00000001FF
